:0200000480007A
:1000000017610B0013010148EF00400E6F00000064
:040010006780000005
:10001400130101FF1305400023261100EF90124A3B
:1000240097370900938707922320F50017460200AB
:100034001306C66D973509009385858FEF300257F7
:10004400130101FE2326A10013058000232C810047
:10005400232E1100232A9100EF9052468325C100DC
:1000640013040500EF90927D17A602001306C6F351
:10007400974509009385451113050400EF30025399
:100084009304050013050400EF90D248138504007F
:10009400EF100433130101FE2326A1001305800091
:1000A400232C8100232E1100232A9100EF9012416A
:1000B4008325C10013040500EF90D27D17A602002A
:1000C400130606F2974509009385050E13050400EF
:1000D400EF30C24D9304050013050400EF909243E2
:1000E40013850400EF10C42DB777048083C6D78A24
:1000F400130101DB03C6C78A03C7E78A23248124CB
:1001040003C4F78A93968600B3E6C6001317070163
:100114003367D700131484013364E4009387C78AD8
:100124003304F4008327040023261124232291247A
:10013400B307F44083D6070023202125232E31233F
:100144003703FEFF1307400033016100637AD72AA7
:1001540083D747006386072AB307F40083A5070003
:10016400930730006390F52AB72709809387476D7A
:1001740013050123232EF10AB70902002320011ECF
:1001840023260122EFA000683709FEFF9387092385
:10019400B38727009304C9E8B3849700B7C60180E6
:1001A400938606A513060123930500001385040016
:1001B400EF20C21213050123EFE0507EB7C6018081
:1001C4009386062F1306012393053000138504003C
:1001D400EF20C21013050123EF109230B7C601803F
:1001E4009386866B13060123930540001385040050
:1001F400EF20C20E13050123EF508179B7E6018089
:100204009386C681130601239305300113850400E8
:10021400EF20C20C13050123EF90504CB7E6018088
:100224009386C68213060123930560011385040097
:10023400EF20C20A13050123EF700157B7C60180EE
:10024400938646F513060123930550021385040093
:10025400EF20C20813050123EF301177B7D60180D0
:100264009386465513060123930510001385040055
:10027400EF20C20613050123EF20C13FB7D601804A
:100284009386469F1306012393059000138504006B
:10029400EF20C20413050123EF30917BB7E6018000
:1002A400938646DB1306012393059001138504000E
:1002B400EF20C20293870923B3872700130949DD7E
:1002C4003389270113050900130800009307000070
:1002D40037070200930601231386040093050400E4
:1002E400EF70900513050900EF8080069305000068
:1002F40013050900EF708068930405006308051472
:1003040083278500372509801305455B83A50700EE
:10031400EF80D11D83A7840003A707006358E00280
:10032400130400003729098013172400B387E7005A
:1003340083A547001305C95CEF80511B83A7840084
:100344001304140003A70700E340E4FE03A704001A
:10035400930710006306F70EB72509809385C553EC
:10036400372509801305055DEF805118372509806D
:10037400930510001305855EEF80511703A78401D0
:1003840093070000630E070003A744003307F70038
:100394002300070003A7840193871700E3E6E7FE21
:1003A400372509809305100013054561EF8011146A
:1003B400B70702003705FEFF93870723130545DDC2
:1003C400B38727003385A700EF800045630805083D
:1003D400372509801305C562EF8051111304F0FF1E
:1003E400B70702003705FEFF93870723B38727006B
:1003F400130545DD3385A700EF7090206F00C00121
:100404009305000037250980130630001305455471
:10041400EF80D10D1304F0FF3703020033016100B4
:100424008320C1241305040083244124032481244C
:10043400032901248329C1231301012567800000B6
:10044400B7250980938545536FF09FF137250980BF
:100454001305C558EF8091096FF05FF8B7070200E4
:100464003705FEFF93870723130545DDB387270070
:10047400930500003385A700EF70005E37250980DF
:10048400930510001305C563EF80510637250980D5
:1004940013058565EF809105130400006FF05FF488
:1004A400B707020013040500938707233705FEFFEF
:1004B400B3872700130545DD3385A700EF7050147B
:1004C40013050400EF00D46F130101FF23248100FE
:1004D400371400001304049423229100130504002C
:1004E400976409009384C4EC2326110023A6840096
:1004F400EFB0024023A4A400631405029767090027
:1005040023AE07EA9767090023A607EA8320C10000
:10051400032481008324410013010101678000004A
:1005240023A2A40023208500232205006FF01FFED0
:1005340063000506832705009306A000B307F54072
:1005440003D7070063FEE60203D7A7009306000063
:10055400630607003307E5008326070003D7470037
:1005640093070000630607003305E50083070500D1
:100574001385070063DCD70013850600678000003D
:100584009306400063ECE60013050000678000005A
:10059400130101FF23261100EFA0923893060000F7
:1005A4006FF0DFFB630E05008327050203050500DA
:1005B4006344F5006780000013850700678000002E
:1005C400130101FF23261100EFA09235130101FF4F
:1005D400232481002326110013040500638E0502E1
:1005E40083A585009307600003A605009385450055
:1005F4002320C50063CEC702131626001305450049
:10060400EFB0D2418320C10013050400032481000C
:1006140013010101678000008320C100232005002D
:100624001305040003248100130101016780000005
:10063400EFA0122F9387050003A6470083A50500AA
:10064400130101FF232611003306B64093572640B9
:10065400232481002320F5009307800163C2C7028D
:100664001304050013054500EFB0523B8320C1007D
:1006740013050400032481001301010167800000B5
:10068400EFA0122A130101FE232C8100232A9100DA
:10069400138406009304060093060000130600006A
:1006A4002328210123263101232E1100930905005B
:1006B40013890500EF90C3326314050223A00400DC
:1006C4008320C101232004000324810183244101E8
:1006D400032901018329C10013010102678000007D
:1006E400130604001385090093050900EF90527264
:1006F400B767098003A687BA83A6C7BAEF90835366
:10070400EFA0C204EFA003416340B006638A05046E
:100714003707008083270400630AE502130710FEED
:1007240063D6E70023200400130500008320C101E1
:100734000324810123A0A40003290101832441018E
:100744008329C1001301010267800000E39805FCBE
:10075400938717002320F400370500406FF01FFC37
:10076400B7070080E3F6A7FAEFA0921B130101FE7E
:10077400B7670980232C81002326310113840600E6
:100784009309060083A647BB03A607BB232A91004F
:1007940023282101232E1100130905009384050049
:1007A400EF90C32C6356A008130509009385040039
:1007B4001306000093060000EF90832263140502E1
:1007C40023A00900232004008320C1010324810104
:1007D40083244101032901018329C100130101027A
:1007E40067800000130604001305090093850400C4
:1007F400EF901262B767098003A687BA83A6C7BAC7
:10080400EF904343EF909274EFA0C3306342B00281
:10081400638E05043707008083270400630EE50216
:10082400130710FE63C8E70023A0A900E3DE07F85E
:10083400EFA0120F232004008320C10103248101AF
:1008440023A0090083244101032901018329C10054
:100854001301010267800000E39405FC93871700ED
:100864002320F400370500406FF09FFBB70700809A
:10087400E3F2A7FA6FF0DFFB130101FDB76709800C
:1008840023202103232E3101138906009309060036
:1008940083A647BB03A607BB23248102232291021C
:1008A400232611029304050013840500EF90432AC4
:1008B400635805081385040093050400130600001B
:1008C40093060000EF90831A635CA0061306C10030
:1008D4001385040093050400EF909253B7670980D1
:1008E40003A687BA83A6C7BAEF90C334EF90126603
:1008F400EFA043226346B0046380050637070080F7
:100904008327C1006300E504130710FE63D6E702E2
:1009140023A00900930700008320C102032481025D
:100924002320F90083244102032901028329C10100
:10093400130101036780000023A0A900E35EF0FC1B
:10094400EFA0027EE39205FC938717002326F100B3
:10095400370500406FF05FFBB7070080E3F0A7FAAC
:100964006FF01FFEB707008093C7F7FF33F7B70098
:100974003367A700138805006302070813D74501EE
:100984001377F77F9306F07F6304D704930627C099
:100994009395A50093576501370700401315A500EB
:1009A400B3E7F5002320D6009305F7FF1355A50000
:1009B400B7062000B3F7B70063EAA6043385E7005F
:1009C400B337F50093850700634C08046780000083
:1009D4009395C5003707C0FF3375A70093D5C500AD
:1009E4002320F600B365B50063960504634A080442
:1009F4001305F0FF9385070067800000232006009D
:100A0400130500009305000067800000130517001C
:100A14003385A700B337F50093850700E35808FA38
:100A2400B337A000B305B040B385F5403305A0400B
:100A34006780000013050000930500006780000034
:100A440013050000B705008067800000B70600802A
:100A540093C6F6FFB367B500630CD6101308000005
:100A640093080000638E070A93D6F54133C5A600A8
:100A74003308D540B3C7B60033350501B387D74033
:100A84001306F6FFB387A7401357F6411305080072
:100A94006346F00A638C0708B70800401358F50151
:100AA4009397170093361600B367F80013151500D3
:100AB4003307D7401306F6FF6346F000E39007FEC2
:100AC400E36E15FDB70600C0B306D50033B5A60026
:100AD4009387F7FFB307F5006350E00E1306F03F6A
:100AE400130700001305F0FF6348A70A6302A70A6F
:100AF40013D7A6001306F63F93976701B367F70071
:100B04001316460137070080B3F5E500B367F60016
:100B140093966601B3E7B70013880600938807002D
:100B2400130508009385080067800000B70600409D
:100B3400E364D8F6B7060080E3F606F937030080CD
:100B4400930616009398F70133B8C60013551500A1
:100B540093D7174033E5A800138606003307E8004F
:100B6400E340F0FEE39007F6E36CA3FC6FF09FF51F
:100B740063880702635AB004B767098003A887BC77
:100B840083A8C7BC1305080093850800678000008C
:100B9400130710C0E37EE6F4130610C06FF05FF590
:100BA400B767098003A807BC83A847BC13050800DE
:100BB4009385080067800000E31607F21305F03FF1
:100BC400E372C5F26FF09FF163940500E31605FA32
:100BD400B767098003A887BB83A8C7BB6FF05FF41E
:100BE400B707008093C7F7FF33F7B7003367A70051
:100BF400938E05009388060033FED7006300071226
:100C040013D745011377F77F1308F07F630A070DA5
:100C14009395A50093576501370300401315A5006C
:100C2400B3E7F5001308F3FF1355A500B70520003B
:100C3400B3F7070163F4A5001303130033836700BC
:100C4400B337F3001388070063DA0E00B33560008E
:100C5400B307F0403388B74033036040B367CE0036
:100C640013050000930500006388070A130527C0D5
:100C740013D746011377F77F9307F07F630AF704CE
:100C84009396A60093576601B70500401316A60075
:100C9400B3E7F600138EF5FF1356A600B70620003F
:100CA400B3F7C70163ECC6083386B700B337F60061
:100CB40063DA0800B336C000B307F040B387D74007
:100CC4003306C040B705008093C6F5FF6310D5080E
:100CD400B767098003A507BC83A547BC67800000EC
:100CE4009395C5003707C0FF3375A70093D5C5009A
:100CF400B365B500639C051263C20E1A1303F0FFBB
:100D040013880700B367CE00E38407FC370700802D
:100D14001345F7FF6FF0DFF567800000B367CE007F
:100D24001305000093050000E38807FE1305000087
:100D340013030000130800006FF09FF313861500DF
:100D44003386C700B337F6006FF09FF63308C80246
:100D5400930627C0B386A60093C5E5FFB387670251
:100D640033366602B3870701B387C70013D8F74148
:100D740033E707016382B60C630C0710B347F8002E
:100D840033860741B3B7C700330700413307F74041
:100D940093D5F64193070600634AE0026304070E05
:100DA400B708004013D5F7011317170013B6160040
:100DB4003367E50093971700B385C5409386F6FF24
:100DC4006346E000E31007FEE3EE17FD370600C0BC
:100DD4003386C700B337F6001307F7FFB387E7007E
:100DE4006352B0089306F03F930500001307F0FF29
:100DF40063C6E5066380E5061357A6009386F63FAF
:100E04009397670193964601B367F700370700800D
:100E14003378E800B3E7F60013166601B3E7070179
:100E24001305060093850700678000001303000084
:100E3400130800006FF01FEDE30C07E8631C0802C1
:100E4400638A0702B767098003A587BC83A5C7BC6B
:100E540067800000130710C0E3F0E6FA930610C0A1
:100E64006FF09FF9E39405F81307F03FE370D7F8A8
:100E74006FF05FF7B767098003A587BB83A5C7BB7E
:100E84006780000037060040E3ECC7F06FF01FF402
:100E940013050000930500006780000013030000A1
:100EA400370800806FF01FE6B707008093C7F7FF8D
:100EB40033F7B7003367A700938E050093880600C5
:100EC40033F8D700630E071213DE4501137EFE7F4D
:100ED4001307F07F6300EE0C9395A500935765010B
:100EE400370300401315A500B3E7F5001307F3FF1C
:100EF4001355A500B7052000130E2EC0B3F7E70065
:100F040063F4A5001303130033836700B337F300BE
:100F14001387070063CE0E103368C800630A0812F3
:100F240093D5460193F5F57F9307F07F13051000E1
:100F34006380F5061395A60093576601B706004033
:100F44001316A600B367F5001388F6FF1356A60020
:100F540037052000938525C0B3F707016374C500E6
:100F640093861600B386D700B3B7F60063DA080099
:100F74003336D000B307F040B387C740B306D04040
:100F8400370600801346F6FF130510006312CE04E3
:100F9400678000009395C5003707C0FF3375A7002D
:100FA40093D5C500B365B500639E050663C80E0CF2
:100FB4001303F0FF138707003368C80013051000FC
:100FC400E30808FC370E0080134EFEFF6FF05FF558
:100FD4003366E300630406046356070033E6F60051
:100FE400630C06001305F0FFE344BEFA130510007A
:100FF400E3C0C5FB6356F7061305F0FF67800000E6
:101004003368C80013050000E30408F8130E000059
:1010140013030000130700006FF09FF0E3D407FCF4
:101024006780000013030000130700006FF0DFF86F
:10103400B3356000B307F0403368C8003387B74066
:10104400330360401305F0FFE31C08EC67800000E5
:101054009305000093060000930700006FF09FF8CB
:101064006394E700E36AD3F813051000E3C2E7F2E0
:10107400630CF700130500006780000013030000F1
:10108400370700806FF05FF3E3F666FE67800000C9
:10109400130101FD23286101130B050037050080AE
:1010A4003355E500232611022324810223229102D1
:1010B40023202103232E3101232C4101938907008E
:1010C400232A510123267101138A0500938A0600FD
:1010D40093040800930B0600EF90531913090500BD
:1010E4001384050093860A0013860B0093050A00F7
:1010F40013050B00EF8013341306050093860500D7
:101104001305090093050400EF80D332B767098003
:1011140003A947BD03AA07BD930A05009306090066
:1011240013060A0013840500EF8053146346A006D7
:10113400B767098003A607BB83A647BB13850A00CC
:1011440093050400EF8093126352A00A13850A00EA
:10115400930504001306000093060000EF80530873
:101164006310050423A0090023A004008320C10206
:101174000324810283244102032901028329C1013A
:10118400032A8101832A4101032B0101832BC1001E
:101194001301010367800000930A0A001304090085
:1011A4001386040013850A0093050400EF90424659
:1011B400B767098003A687BA83A6C7BAEF809327C7
:1011C400EF90C258EF9013156342B0026382050496
:1011D4003707008083A704006302E502130710FEAB
:1011E40063C8E70023A0A900E3D207F8EF90527385
:1011F40023A0040023A009006FF05FF7E39005FE2D
:101204009387170023A0F400370500406FF01FFDFB
:10121400B7070080E3FEA7FA6FF05FFD130101FC3E
:10122400232E7101930B0500370500803355E5002B
:10123400232E1102232C8102232A91022328210325
:10124400232631032324410323225103138A070055
:1012540023206103232C8101938A0500138B06004C
:101264001309080093890800130C0600EF9013007B
:10127400930405001384050093060B0013060C0069
:1012840093850A0013850B00EF80D31A130605001B
:10129400938605001385040093050400EF809319D9
:1012A400B767098083AA47BD03AB07BD9304050054
:1012B40093860A0013060B0013840500EF80037B5A
:1012C4006344A012B76A098003A60ABB83A64ABB7B
:1012D4001385040093050400EF8043796354A01040
:1012E4001385040093050400130600009306000010
:1012F400EF80036F631E050EB767098023200A0081
:1013040083A487BD03A4C7BD2320090013070000DD
:101314009307000013060700138504009386070053
:1013240093050400EF70937D03A60ABB83A64ABB12
:101334009304050013840500EF8093016354050AA8
:1013440013850400930504001306000093060000AF
:10135400EF80C3716358A0081306C100138504000D
:1013640093050400EF90C22AB767098003A687BAE1
:1013740083A6C7BAEF80130CEF90423DEF908379B8
:101384006342B00663820512370700808327C100D9
:101394006302E510130710FE63D2E70423A00900DB
:1013A40093070000032701048320C103032481035E
:1013B4002320F70083244103032901038329C10265
:1013C400032A8102832A4102032B0102832BC101D8
:1013D400032C8101130101046780000023A0A900EC
:1013E400E352F0FCEF90D25393040B0013840A00F1
:1013F400130609001385040093050400EF904221AD
:10140400B767098003A687BA83A6C7BAEF80930299
:10141400EF90C233EF900370E346B0FC638C050891
:101424003707008083270900630CE504130710FEC7
:1014340063CEE7022320AA0013040500E3C407FADD
:10144400370500803355F500EF904362930405009F
:101454001305040013840500EF904361130705008E
:1014640093870500B76A09806FF0DFEA232009003B
:1014740023200A0013040000930700006FF05FFCB0
:10148400E39605FA938717002320F90037050040F7
:101494006FF0DFF9E39005F0938717002326F1003E
:1014A400370500406FF01FEFB7070080E3FEA7EC9D
:1014B4006FF05FF3B7070080E3F4A7F66FF09FF2D5
:1014C400130101FE232A9100930410002328210113
:1014D400130905003395A4001305F5FF232C81009F
:1014E4002326310113040600232E110093890500DD
:1014F400EF90C35733062441930706FE13090500F2
:101504001384050063CE0706B395F40013050000A9
:10151400EF90C36D130605009386050013050900BB
:1015240093050400EF800371938709FE930405007B
:101534001384050063CC070493051000B395F500EC
:1015440013050000EF90836A1306050093860500D7
:101554001385040093050400EF70535AEF80926CD6
:10156400EF90C3488320C1010324810183244101F6
:10157400032901018329C1001301010267800000CE
:10158400930500003395C4006FF09FF81305100015
:1015940093050000331535016FF0DFFA130101FDE7
:1015A400232E310193090500130506002326110299
:1015B4002324810223229102232021039384060001
:1015C40013890500232C4101232A51012328610199
:1015D400930A0800138B0700232671012324810139
:1015E400930B0700130C0600EFD0434D13040500C2
:1015F40013850400EFD0834C93850900130A05007A
:1016040013050900EFC013731309050093050400C3
:1016140013050A00EFC013729305050013050900B2
:10162400EFC043709305050023A0AA001309050029
:1016340013850900EFC0036F93050500130504002B
:10164400EFC0536F930905009305050013050400CB
:10165400EFC05327635AA00613150C011355050157
:10166400EFD0C3459304050093050500130504005A
:10167400EFC0536C93050900EFC0533B93850400FE
:1016840023A0AB0013050A00EFC0D36A83A50A00A8
:10169400EFC0D3398320C102032481022320AB008D
:1016A40083244102032901028329C101032A810100
:1016B400832A4101032B0101832BC100032C8100E8
:1016C40013010103678000009385090013050A00D4
:1016D400EFC0932A930705001395040113550501E0
:1016E400E3C007F813850900EFD0835BEF9002068F
:1016F400EFD05308EFD003361315050103A90A00F0
:10170400135505016FF0DFF5130101FD2326710167
:10171400930B050037650980032585C423248102C2
:101724001384050093850B00232611022320210333
:10173400232E3101232C4101232A51012328610145
:1017440023248101138B07001389060093090700E2
:10175400930A060023229102EFC0C35C130C050018
:101764009305000013050B00EFC0D315130A000006
:101774006352A00883240900930504001385040020
:10178400EFC0531493850A006344A000930404003B
:1017940013850400EFC0531E1307050093050400CE
:1017A40013850A0063400708EFC0D35893050C0063
:1017B400EFC0D327EFD0C34EEF805279EFD0837BB5
:1017C40093850B00EFC0932693050400EFC0C30F6D
:1017D400130A1A0023A0A90013050A00EFD0032E50
:1017E40093050B00EFC0531913094900938949006D
:1017F400E34205F88320C1020324810283244102C9
:10180400032901028329C101032A8101832A410199
:10181400032B0101832BC100032C8100130101035D
:101824006780000013850400EFC0D35093050C00BB
:10183400EFC0D31FEFD0C346EF805271EFD0837354
:1018440093850B00EFC0931E93050400EFC0C307FC
:10185400130A1A0023A0A90013050A00EFD00326D7
:101864009305050013050B00EFC0D30513094900C8
:1018740093894900E340A0F06FF0DFF7130101FF03
:1018840023261100232481002322910023202101F7
:1018940093840500EF908207B767098083A5C7C4C6
:1018A400EFC0D31813040500EFD0833FEF80126A12
:1018B400EFD0436C13090500EFD0C3129305090060
:1018C40023A0A40013050400EFC0D346B767098022
:1018D40083A507C51315150013551500EFC0D309CB
:1018E4008320C100032481008324410003290100D3
:1018F4001355F5011301010167800000638205148B
:10190400130101FDB7670980232481022322910278
:1019140023202103232E3101232C4101232A5101A9
:1019240023286101232671012324810103A987BA95
:1019340083A9C7BA232611022322A1012320B101BE
:10194400138A050093040500930A06001384060015
:10195400130C0000370B0080930B10FE6F00000285
:1019640023A00A0023200400130C1C009384840089
:10197400938A4A0013044400630E8A0703AD0400EB
:1019840083AD4400130600009306000013050D0008
:1019940093850D00EF80C304E30405FC13060400E3
:1019A40013050D0093850D00EF8092461306090080
:1019B40093860900EF800328EF805259EF90831536
:1019C4006344B00863800508832704006300650747
:1019D40063D67701232004001305000023A0AA0086
:1019E400130C1C0093848400938A4A00130444005B
:1019F400E3168AF98320C10203248102832441026D
:101A0400032901028329C101032A8101832A410197
:101A1400032B0101832BC100032C8100032D410002
:101A2400832D01001301010367800000E39205FA8E
:101A3400938717002320F400370500406FF05FF907
:101A440067800000E372ABF8EF90826D9346F6FF77
:101A540093D6F641B376D6003308C0406354C00031
:101A640013080000B316D5003386D5023395D5028A
:101A74006384B60A63400506370700403307E6006F
:101A84003336C7003306A600131616001357F701A2
:101A9400B367E6001307F0016344070B130708FE5E
:101AA40013050000635607001305100033150501E4
:101AB4001305F5FF9356154013D7F7013375F50059
:101AC4003307D7003325A700B3D707413305F50003
:101AD40067800000B70600C0938616009308F0FFE5
:101AE400B307D60033B7C700330615013306C70062
:101AF4001357F6411317170013571700B307F700CE
:101B040033B7E7003307C7001317170093D7F7015C
:101B1400B367F7006FF01FF8B706004093080000A2
:101B240063580500B70600C0938616009308F0FFBB
:101B34003707008093C7F5FFE38EE5F46FF05FFA93
:101B4400B73604803736048037350480130101FF2B
:101B5400938606F9130606FA930570161305C5FF56
:101B640023261100EF90425D130101FF232611008B
:101B7400634C06109387F601130760026366F70E41
:101B8400378700003388E500B7070100637EF80A51
:101B9400B707FF7F6348F6061307F7FF1306000035
:101BA4003306A6029307E0003388D740930708FE64
:101BB400B385E502B338E5023386C5003305E50293
:101BC400B308160163CA0706130610003316F6009D
:101BD400930700003387A7001305F000B306D54030
:101BE400B337F70033051601138606FE3385A700C5
:101BF400634206028320C1003355C540130101012D
:101C0400678000003306E600135706411356F64179
:101C14006FF01FF98320C1009307F001131515001D
:101C2400B387D740B317F5003355D70033E5A70082
:101C340013010101678000009307100013060000E0
:101C4400B39707016FF01FF9B73604803736048065
:101C5400373504809386060E1306C6049305B00236
:101C640013054509EF90424DB7360480373604809A
:101C7400373504809386460C1306C6049305A002E8
:101C840013054509EF90424BB7360480373604807C
:101C940037350480938606031306C6049305900221
:101CA40013054509EF904249635EB008130101FE34
:101CB40093952500232C8100232A910023263101AA
:101CC400232E110023282101130405009304060088
:101CD400B309B500032904009305000013050900A6
:101CE400EFC0433E634AA0029307000023A0F40020
:101CF4001304440093844400E39E89FC8320C101BF
:101D04000324810183244101032901018329C100A2
:101D1400130101026780000023A02401130444007E
:101D240093844400E39889FA8320C1010324810148
:101D340083244101032901018329C1001301010204
:101D44006780000067800000635CB00A130101FE35
:101D5400B76709802322510183AA87C4B767098022
:101D64002324410103AA47C593952500232C810010
:101D74002328210123263101232E1100232A910037
:101D84001304050013090600B309B50083240400F5
:101D940093850A0013850400EFC0C332930705003E
:101DA40093050A00138504006340F004EFC08331F7
:101DB400634EA0022320490113044400130949007F
:101DC400E31634FD8320C1010324810183244101EE
:101DD400032901018329C100032A8100832A4100C8
:101DE400130101026780000093840A0023209900F4
:101DF4001304440013094900E39A89F86FF09FFC27
:101E0400678000006354B00C130101FEB7670980BA
:101E14002324410103AA87C593952500232C81001F
:101E24002328210123263101232E1100232A910086
:101E34001304050013090600B309B5008324040044
:101E440093050A0013850400EFC0C3279307050018
:101E540093050000138504006340F004EFC083265B
:101E6400634EA002930700002320F90013044400EA
:101E740013094900E31434FD8320C10103248101C3
:101E840083244101032901018329C100032A81001C
:101E9400130101026780000093040A0023209900C3
:101EA4001304440013094900E39A89F88320C1010B
:101EB4000324810183244101032901018329C100F1
:101EC400032A81001301010267800000678000007B
:101ED400635EB004130101FF939525002324810060
:101EE400232291002320210123261100130405003D
:101EF400930406003309B5000325040093844400C9
:101F04001304440013250500EFC0D34B23AEA4FEF5
:101F1400E31489FE8320C10003248100832441004B
:101F2400032901001301010167800000678000009C
:101F340093D8F501B388B8009307100093D81840DC
:101F440063DAB7029306060013070000B307E5003F
:101F54008387070093862600130717001398C70189
:101F64001358C84193D74740238F06FFA38FF6FE2B
:101F7400E34E17FD93F71500638E07003305150133
:101F8400830705003306B6009397C70193D7C7416B
:101F9400A30FF6FE6780000083A7050083A6070051
:101FA40093874700634A06026358D6021316260035
:101FB4003386C7008325060063C005028327850096
:101FC40063880700939565003385B7006780000038
:101FD400832705056780070013050000678000005C
:101FE40083A50500130101FF23261100232481008A
:101FF40003A805009307060013070500634A0604B7
:102004006358060593172600B387F50083A5470098
:102014009307F0FF6386F506138406008326850084
:1020240093976500B387F600639806008327050538
:10203400E7800700930705008320C1002320F400F4
:1020440003248100130500001301010167800000CF
:1020540083284701B7350480130507009306080059
:102064001386070093850513E78008008320C100C9
:10207400032481001305100013010101678000008F
:1020840083274501B73504809385C515E78007008C
:102094008320C100032481001305100013010101F2
:1020A4006780000083A7050083A607006340060637
:1020B400635ED60493874700131626003386C70051
:1020C4008325060063C4050483278500638C070009
:1020D400139565003385A7008347D50263880702FB
:1020E4006780000083270505130101FF23261100E3
:1020F400E7800700630005028347D502638C07006D
:102104008320C10013010101678000001305000052
:10211400678000008320C100130500001301010142
:102124006780000083A7450083A6070093874700C4
:10213400634A06026358D602131626003386C70084
:102144008325060063C00502832785006388070092
:10215400939565003385B7006780000083270505E4
:1021640067800700130500006780000083A5450011
:10217400130101FF232611002324810003A8050075
:102184009307060013070500634A0604635806050F
:1021940093172600B387F50083A547009307F0FF44
:1021A4006386F506138406008326850093976500ED
:1021B400B387F6006398060083270505E7800700C8
:1021C400930705008320C1002320F4000324810029
:1021D40013050000130101016780000083284701F3
:1021E400B73504801305070093060800138607001B
:1021F40093850513E78008008320C1000324810030
:1022040013051000130101016780000083274501B5
:10221400B73504809385C515E78007008320C10086
:1022240003248100130510001301010167800000DD
:1022340083A7050083A6070093874700634A060225
:102244006358D602131626003386C700832506007A
:1022540063C00502832785006388070093956500A2
:102264003385B70067800000832705056780070072
:10227400130500006780000083A7C50083A607003C
:1022840093874700634A06026358D6021316260052
:102294003386C7008325060063C0050283278500B3
:1022A40063880700939565003385B7006780000055
:1022B4008327050567800700130500006780000079
:1022C40083A5C500130101FF2326110023248100E7
:1022D40003A805009307060013070500634A0604D4
:1022E4006358060593172600B387F50083A54700B6
:1022F4009307F0FF6386F5061384060083268500A2
:1023040093976500B387F600639806008327050555
:10231400E7800700930705008320C1002320F40011
:1023240003248100130500001301010167800000EC
:1023340083284701B7350480130507009306080076
:102344001386070093850513E78008008320C100E6
:1023540003248100130510001301010167800000AC
:1023640083274501B73504809385C515E7800700A9
:102374008320C1000324810013051000130101010F
:102384006780000083A7850083A607009387470022
:10239400634A06026358D602131626003386C70022
:1023A4008325060063C00502832785006388070030
:1023B400939565003385B700678000008327050582
:1023C40067800700130500006780000083A585006F
:1023D400130101FF232611002324810003A8050013
:1023E4009307060013070500634A060463580605AD
:1023F40093172600B387F50083A547009307F0FFE2
:102404006386F5061384060083268500939765008A
:10241400B387F6006398060083270505E780070065
:10242400930705008320C1002320F40003248100C6
:102434001305000013010101678000008328470190
:10244400B7350480130507009306080013860700B8
:1024540093850513E78008008320C10003248100CD
:102464001305100013010101678000008327450153
:10247400B73504809385C515E78007008320C10024
:10248400032481001305100013010101678000007B
:10249400130101FD23229102232E3101232C41013A
:1024A400232A5101232861012326110223248102B6
:1024B400232021032326710183AAC500032BC60010
:1024C4009309050093040700138A0700638A06082A
:1024D40013850A0013840600EFC0837C930B050068
:1024E40013050B0013890500EFC0837B1306050059
:1024F4009386050013850B0093050900EF70837321
:10250400130905000325C40013840500EFC04379B3
:1025140013060500938605001305090093050400BE
:10252400EF70134E1309050003A5C400139415009E
:1025340013541400EFC0C3761306050093860500F8
:102544001305090093050400EF60535BB767098026
:1025540003A607BE83A647BEEF70835F6344A0084B
:1025640093050B0013850A00EFB0534C930500004C
:1025740013040500EFB01335634E0508130504007A
:10258400EFC003729307050003A5C400138405007C
:1025940093840700EFC0C3701306050093860500FB
:1025A4001385040093050400EF6053552320AA000B
:1025B4002322BA00130500008320C10203248102F0
:1025C40083244102032901028329C101032A8101D1
:1025D400832A4101032B0101832BC1001301010351
:1025E4006780000083A74901373704801307071960
:1025F4009306001437360480B73504801385090028
:102604001306461B9385051EE7800700130510007B
:102614006FF09FFA3737048083A749011307871F98
:102624009306D0146FF01FFD130101FE13880500FB
:10263400232821018325C600130905000325C800AA
:10264400232C8100232A910023263101232E1100FB
:102654001384060093090700EFB0533D930500006F
:1026640093040500EFB01326634C0504138504009E
:10267400EFC00363930405000325C400138405001D
:10268400EFC003621306050093860500138504005A
:1026940093050400EF6093468320C1010324810164
:1026A40023A0A90023A2B900832441010329010125
:1026B4008329C10013050000130101026780000093
:1026C400832749013737048037360480B7350480BF
:1026D400130509001307871F9306D0141306461B1E
:1026E4009385051EE78007008320C101032481012F
:1026F40083244101032901018329C100130510002A
:10270400130101026780000083270600130101FD05
:10271400232481022322910223202103232E310129
:1027240023261102232C4101232A5101232861016C
:1027340023267101232481012322910113083000EF
:102744009304050013840500138906009309070008
:1027540063820713130790006382E70A130770006C
:102764006390E704378A0000130AFAFFB78AFFFF71
:1027740093071000032BC600832B0601630CF40897
:1027840093073000630EF40E930720006300F41ADD
:102794002320590123A04901130500006F00C00242
:1027A400832745013737048037360480B7350480E2
:1027B40013074721930630191306461B9385051EFC
:1027C400E7800700130510008320C102032481025F
:1027D40083244102032901028329C101032A8101BF
:1027E400832A4101032B0101832BC100032C8100A7
:1027F400832C41001301010367800000930710003C
:10280400032BC600832B0601130AF007930A00F872
:10281400E318F4F693050B0013050000EFB08350A2
:10282400EFC00348EF709272EFC0C374B7670980BA
:1028340083A5C7C5130B0500EFB0D3086340051883
:10284400B767098083A507C613050B00EFB0D31241
:102854006346A01613050B00EFC0C318B30B750134
:1028640063C65B192320790123A0490113050000E5
:102874006FF09FF5130AF00F930A00006FF05FEFFB
:1028840093050B0013050000EFB0C349EFC04341AB
:10289400EF70D26BEFC0036E376409808325C4C523
:1028A400130C0500EFB013026344050CB76C0980E8
:1028B40083A50CC613050C00EFB0130C634AA00AE1
:1028C40013050C00EFC00312B307750163C8571357
:1028D40037670980032587C52320F90093050B007A
:1028E400EFB04344EFC0C33BEF705266EFC0836860
:1028F4008325C4C513040500EFB0C37C634A0506F1
:1029040083A50CC613050400EFB013076342A006A9
:1029140013050400EFC0030DB30B7501634C7A0D6E
:1029240023A07901130500006FF01FEAB76709803F
:1029340003A547C593050B0037640980EFB0833EB8
:10294400EFC00336EF709260EFC0C3628325C4C545
:10295400130C0500EFB00377634C0500B76C0980D6
:1029640083A50CC613050C00EFB01301635AA00233
:1029740083A744013737048037360480B735048091
:10298400138504001307C7219306B0151306461BCD
:102994009385051EE7800700130510006FF0DFE242
:1029A40013050C00EFC00304B307750163CC57058E
:1029B40037670980032587C46FF01FF283A744019A
:1029C4003737048037360480B73504801385040014
:1029D4001307C7219306B0151306461B9385051EDE
:1029E400E7800700130504006FF01FDE938B0A00D5
:1029F4006FF05FE7930B0A006FF09FF293870A0072
:102A04006FF01FED93870A006FF09FFA130101F82E
:102A1400232C810503AC0503232A910623263107C1
:102A24002324410723206107232E7105232A9105BE
:102A34002328A10593890500232E1106232C810642
:102A440023282107232251072326B10593051000CB
:102A54002326D1002324F10023280101232A110174
:102A6400032B0108832B4108032D8108832CC10803
:102A740083240109130A0500630EBC0603234501E0
:102A8400B73704803737048037360480B73504807D
:102A940013080C0093081000938747241307072694
:102AA4009306B00D1306461B9385C527E700030064
:102AB400130C10008320C1070324810783244107DA
:102AC400032901078329C106032A8106832A4106B3
:102AD400032B0106832BC105832C4105032D01051E
:102AE400832DC10413050C00032C81051301010877
:102AF40067800000832A060313090600638E8A0395
:102B040003234501B7370480373704803736048000
:102B1400B73504809308100013880A00938747246C
:102B2400130787299306D00D1306461B9385C527E3
:102B3400E70003006FF01FF81304070003274603A0
:102B44006300071E832707006382071803A8070092
:102B540063520C0783A60900938696FF93F6D6FF6B
:102B64006386060283274501373704801307472EFF
:102B74009306D00E37360480B73504801306461BFF
:102B84009385051EE78007006FF0DFF283260600B9
:102B9400130690006386C614130620016382C614CC
:102BA4003737048083274501130707329306F00E55
:102BB4006FF05FFC03A5C900032CC400635E90089A
:102BC400232CF100EFC0C30D930D050013050C0079
:102BD4002324B1032326B102EFC0830C8327810190
:102BE400130F0D00938D0C002320A1022322B102A8
:102BF400130D0000930CC103130C810303A54700BC
:102C0400130F4F00232EF100232CE101EFC04309E1
:102C1400032681028326C102938D4D00130D1D00EE
:102C2400EF7043010326010283264102EF60036D26
:102C340093860C0013060C00EFD0DFA483268103D7
:102C4400032F81018327C101232EDFFE8326C103C5
:102C540023AEDDFEE3449DFA83A709001307300089
:102C6400638CE71A130790006388E700130770006A
:102C7400130C0000E390E7E48327810013060400AB
:102C8400032481078320C107832441070329010703
:102C94008329C106832A4106032C8105832C41051F
:102CA400032D0105832DC10483A5070013870B00A1
:102CB40093060B00832BC105032B010613050A00A1
:102CC400032A8106130101086FF01FA4373704801B
:102CD400832745011307872C9306900E6FF09FE915
:102CE400638A040503234A01B73704803737048015
:102CF400938804009387C7351307C7369306100FCC
:102D040037360480B73504801306461B9385C527E0
:102D140013050A00E7000300138C0A006FF09FD923
:102D240037370480832745011307472B9306800E0A
:102D34006FF05FE4832687000327890093962600BB
:102D44003307D7008328470063821403B73704800E
:102D54003737048003234A01138804009387073913
:102D64001307C7359306200F6FF09FF903A5C90019
:102D740093874700232EF100232CA101EFB0537257
:102D8400930D05000325C4002320B1032322B102BF
:102D9400EFB01371032F81018327C101938D0C00C0
:102DA4002324A1022326B102130D0000930CC103B6
:102DB400130C810303A5070093874700232EE10129
:102DC400232CF100EFB0D36D0326010283264102C8
:102DD400130D1D00938D4D00EF60D3650326810212
:102DE4008326C102EF60835193860C0013060C0006
:102DF400EFD05F89032FC1018326810383278101DB
:102E0400130F4F00232EDFFE8326C10323AEDDFE06
:102E1400E3429DFA6FF05FE48324C10083ACC900F0
:102E2400032DC9006388040813850C00EFB05367B1
:102E3400930D050013050D00138C0500EFB05366C8
:102E4400130605009386050013850D0093050C00F9
:102E5400EF60535E130C050003A5C400138905003D
:102E6400EFB01364130605009386050013050C00E8
:102E740093050900EF70C338130C05000325C40043
:102E84001399150013591900EFB093611306050047
:102E94009386050013050C0093050900EF600346B3
:102EA400B767098003A607BE83A647BEEF60534AEF
:102EB4006340A00893050D0013850C00EFB00337A1
:102EC4009305000013090500EFB0C31F634A05080A
:102ED40013050900EFB0D35C930A05000325C40071
:102EE40013890500EFB0D35B130605009386050034
:102EF40013850A0093050900EF604340032601018E
:102F04009306C103EFD00FF80327C1030326410141
:102F140083A709003307E040930690002320E600CE
:102F2400E38CD7D413073000E388E7D46FF01FD4C1
:102F340083274A01373704801307071993060014BF
:102F440037360480B73504801306461B9385051E67
:102F540013050A00E7800700138C0A006FF09FB581
:102F64003737048083274A011307871F9306D01439
:102F74006FF01FFD130101F92324810603A4050347
:102F84002322910623202107232671052320A1054E
:102F9400232EB1039384050023261106232E310525
:102FA400232C4105232A5105232861052324810567
:102FB40023229105930510002320010123221101EE
:102FC400832B0107832E4107832D8107032DC1071E
:102FD40013090500630EB40603234501B7370480C3
:102FE4003737048037360480B7350480130804006B
:102FF4009308100093874724130707269306B00D00
:103004001306461B9385C527E7000300130410002D
:103014008320C1061305040003248106832441068A
:10302400032901068329C105032A8105832A410551
:10303400032B0105832BC104032C8104832C41043D
:10304400032D0104832DC1031301010767800000D0
:10305400032C060393090600631C8C04138F0600DB
:1030640083264603138A0700130B070083A7060071
:1030740083AC0700635A940703A70400130797FF60
:103084001377D7FF630E071483274501373704806E
:103094001307472E9306D00E37360480B7350480C5
:1030A4001306461B9385051EE78007006FF05FF645
:1030B40003234501B737048037370480373604804B
:1030C400B73504809308100013080C009387472435
:1030D400130787299306D00D1306461B9385C5272E
:1030E400E70003006FF0DFF203A4C400832AC700E3
:1030F40063908C0903A547002326D1012324E10111
:10310400EFB0133A930C0500130504001384050073
:10311400EFB01339130605009386050013850C00E0
:1031240093050400EF601331930C050013850A0026
:1031340013840500EFB0D33613060500938605000B
:1031440013850C0093050400EF60431B9306C10232
:1031540013068102EFD00FD383278102032F81004E
:10316400832EC10023A0FD008327C1022320FD007C
:1031740083A70400130730006382E7181307900045
:103184006388E7001307700013040000E392E7E884
:103194000324810683250A008320C1068324410673
:1031A4008329C105032A8105832A4105032C81044F
:1031B400832C4104032D0104832DC10393860B004A
:1031C40013060B00832BC104032B0105130509000F
:1031D4000329010613870E00130101076FF0CFD2F4
:1031E40003270600130690006300C702130620019C
:1031F400630CC70037370480832745011307073260
:103204009306F00E6FF05FE983A6860003A789009A
:10321400939626003307D7008328470063801C0554
:1032240003234901B73704803737048037360480D5
:10323400B735048013880C00938707391307C73503
:103244009306200F1306461B9385C5271305090013
:10325400E700030013040C006FF09FDB03A5C40018
:103264002326D1012324E101938A4700EFB053239D
:10327400930705000325CB00232CF100232EB10076
:10328400EFB01322032F8100832EC1002328A10055
:10329400232AB1001304000003A50A002326D10148
:1032A4002324E101EFB0D31F032681018326C1014A
:1032B400938D4D0013041400EF60D317032601010E
:1032C40083264101938A4A00130D4D00EF600303E6
:1032D4009306C10213068102EFD0CFBA832681027E
:1032E400032F8100832EC10023AEDDFE8326C1029D
:1032F400232EDDFEE34294FB6FF09FE72324E101DC
:1033040083AAC40083ACC900630E0F0813850A00A6
:103314002326D101EFB0D3189309050013850C00BF
:1033240013840500EFB0D317130605009386050038
:103334001385090093050400EF60D30F032F810068
:1033440093090500138405000325CF00EFB053153E
:1033540013060500938605001385090093050400F0
:10336400EF60136A930905000325CB00139415003D
:1033740013541400EFB0D31213060500938605000E
:103384001385090093050400EF505377B76709804C
:1033940003A607BE83A647BEEF60837B832EC100CE
:1033A4006348A00893850C0013850A002324D101E7
:1033B400EFA0D3679305000013040500EFA093501A
:1033C400832E8100634E0508130504002324D101D4
:1033D400EFB0130D930905000325CB0013840500FA
:1033E400EFB0130C1306050093860500138509003E
:1033F40093050400EF509370032601009306C10265
:10340400EFD04FA80327C1020326410083A704007D
:103414003307E040930690002320E600832E8100CA
:10342400E388D7D613073000E384E7D66FF09FD53F
:1034340083274901373704801307071993060014BB
:1034440037360480B73504801306461B9385051E62
:1034540013050900E780070013040C006FF05FBB3D
:1034640037370480832749011307871F9306D01435
:103474006FF01FFD83A5850003258500130101FF5F
:1034840023261100EFD0C1588320C1003335A0009A
:10349400130101016780000083A68500130101FF69
:1034A4002322910003A7060093840500232611001C
:1034B400232481002320210193051000630AB7020D
:1034C40083274501B7350480130607009385053D1E
:1034D400E78007008320C100032481008324410086
:1034E4000329010013051000130101016780000086
:1034F40003A446001309060013050400EFD0815B02
:103504006354800283A744009315240013074500E5
:10351400B385F50083A60700938747001307470088
:10352400232ED7FEE398B7FE8320C1000324810035
:103534002320A9008324410003290100130500006E
:103544001301010167800000130101F9232A5105C9
:103554002320A10523261106232481062322910674
:1035640023202107232E3105232C4105232861051F
:10357400232671052324810523229105232EB103DB
:10358400232205002304050083A70500130D8500ED
:103594002320A501930A05006352F02237390480E1
:1035A400B7490F00379A9800938C0500938B450018
:1035B40093070000130B0000130C81001309494802
:1035C4009389F923130AFA6783AD0B00130790005C
:1035D4006394072493D7FD41B3C4B701B384F44083
:1035E40093DDFD01637E97469307300663F69748A3
:1035F4009307703E63FA9748B72600009387F670E6
:1036040063F8974837860100B7E5F505138704008A
:1036140013041000938606711306F6699385F50F5B
:103624006F00000163F6F93A6378FA3A63FEF53AFB
:1036340093070700130504003357D702130444000B
:10364400E362F6FE1306D002B3858D001305010074
:1036540023208101EF00D250032701009307300695
:10366400B30DB70163F297049307E4FF3725000015
:10367400B387FD00930640061305F57033F7D402B3
:103684009387E7FF13860400131717003307E90035
:103694008345170003470700B3D4D402A381B700BE
:1036A4002381E700E36CC5FC9307900063F8972C33
:1036B40093941400B304990083C7140083C40400D2
:1036C400A380FD00B736048023809D0013071000FB
:1036D400938646401306000093050000130501007D
:1036E400EF00925E93040102232C910083270500CE
:1036F400930D850013040500638EB731232CF1006C
:10370400832785002320F10283274400232EF10020
:103714002320B4012304040083278101232204000D
:1037240003A50A0063889726032701028326C101A3
:103734006304AD2C03A68A0023A0FA0023A2DA00B6
:1037440023A4EA006300052C232CA1002320C1023A
:10375400232E010023000500032581016308950041
:103764008325010293851500EFF0813403250100C0
:10377400630885018325810093851500EFF04133AB
:1037840003A70C00130B1B0083A74A00938B4B0069
:10379400E34CEBE263840702370700401307F7FFAB
:1037A4006380E730B745098013061000938545EC24
:1037B40013850A00EF00526C6F000002B7360480D4
:1037C40013072000938606401306000093050000AB
:1037D40013850A00EF00524F8320C106032481069B
:1037E40083244106032901068329C105032A81058F
:1037F400032B0105832BC104032C8104832C410476
:10380400032D0104832DC10313850A00832A410576
:10381400130101076780000093D7FD41B3C4B701CA
:10382400B384F44093DDFD0163709724930730065D
:1038340063F097249307703E63F09726B726000041
:103844009387F67063FE972237860100B7E5F50586
:103854001387040013041000938606711306F66997
:103864009385F50F6F00000163F0F916637AFA1679
:1038740063F0F51893070700130504003357D702C4
:1038840013044400E362F6FE1306D002B3858D00F0
:103894001305010023208101EF00922C032701006E
:1038A40093073006B30DB70163F297049307E4FF5F
:1038B40037250000B387FD00930640061305F57015
:1038C40033F7D4029387E7FF138604001317170016
:1038D4003307E9008345170003470700B3D4D40234
:1038E400A381B7002381E700E36CC5FC9307900034
:1038F40063FC970893941400B304990083C71400DD
:1039040083C40400A380FD00B726098023809D00A2
:10391400130710009386865C1306000093050000CD
:1039240013050100EF00523A93040102232C910085
:1039340083270500930D8500130405006386B70FE4
:10394400232CF100832785002320F10283274400E0
:1039540013850A00232EF100230404002320B4015C
:10396400232204000326C10183258101EF00D250E4
:1039740003258101E31695DE6FF05FDF9384040372
:1039840093F4F40F6FF01FD49384040393F4F40FAF
:103994006FF09FF70326C101630E06009307100022
:1039A400630EF60893850400EF8052070326C101D5
:1039B40003A50A003305C50023A2CA00230005009D
:1039C400032581016FF0DFD8130455006FF0DFEB9E
:1039D400130455006FF01FC7130465006FF09FC6F2
:1039E400130465006FF05FEA130475006FF09FC560
:1039F400130475006FF05FE923A0FA0023A2DA0034
:103A040023A4EA00232C91009304010213850400EB
:103A14006FF01FD41306000193850D001385040075
:103A2400EF80C27F6FF05FCE1306000193850D0017
:103A340013850400EF80827E6FF05FF183470102FB
:103A44002300F5000326C10103A50A0023A2CA002E
:103A54003305C50023000500032581016FF05FCF06
:103A6400130410006FF01FBE130410006FF0DFE1A9
:103A7400130420006FF05FE1130420006FF09FBC7B
:103A8400130440006FF05FE0130430006FF09FBB3D
:103A9400130440006FF01FBB130430006FF0DFDE2F
:103AA4003735048013058540EFC0CFDE832701003E
:103AB40013040500638A87018325810013850700A9
:103AC40093851500EFE0D17E03A50A006308AD00DD
:103AD40083A58A0093851500EFE0917D130504000A
:103AE400EFD0130E130405006FF01FFE832781012E
:103AF40013040500638A97008325010213850700D8
:103B040093851500EFE0D17A03250100E30E85FBD0
:103B14008325810093851500EFE091796FF0DFFA3A
:103B2400130405006FF05FFE03A78500832786005A
:103B3400130101FA2322510523206105832A07007A
:103B440003AB0700232C81042328210523263105F8
:103B540023244105232E7103232E1104232A9104C7
:103B6400938B0500130406009309050013890600CE
:103B7400130A0B0063C46A01138A0A0013050A00BE
:103B8400EFC05173930405006356400713182A00CD
:103B94003308050193070000130EFBFF1305100003
:103BA4001383FAFF63D2570983A58B003307F340CD
:103BB400131727003387E5000327470063D2670301
:103BC400832684003306FE4013162600B386C600FF
:103BD40083A846006302170B6300A7086392A80A30
:103BE4006312070623200800938717001308C8FFF1
:103BF400E39A47FB23209900130500008320C105A5
:103C04000324810583244105032901058329C10473
:103C1400032A8104832A4104032B0104832BC10357
:103C2400130101066780000063D26705032784003F
:103C3400B306FE40939626003307D70003274700B8
:103C4400631EA7009308100063541701138708002C
:103C54002320E8006FF05FF913870800E30407F8F6
:103C640093080700130710006FF01FFE13071000DE
:103C7400930810006FF05FFDE31807FC6FF09FF6E8
:103C84001305010003A94901EFF01F8C832584006B
:103C94001305810103240100EFF01F8B83268101AA
:103CA400B735048013060400938505421385090083
:103CB400E700090003258101930701026308F50069
:103CC4008325010293851500EFE0915E0325010031
:103CD400930781006308F50083258100938515000F
:103CE400EFE0115D6386040013850400EFC0D16822
:103CF400130510006FF09FF0832781011307010261
:103D040013040500638AE700832501021385070075
:103D140093851500EFE0D159032501009307810035
:103D24006308F5008325810093851500EFE0515861
:103D34006386040013850400EFC0116413050400B6
:103D4400EFD0036813040500E39604FE6FF01FFF31
:103D5400130405006FF05FFC130101F8232C8106A6
:103D6400232A9106138406009304060083A6860082
:103D74000326860083A7850023206107232E71056F
:103D8400032B060083AB06002326310723244107B7
:103D940023225107232C8105232A9105232E110662
:103DA4002328210703AC0700938C05009309050021
:103DB400130A0700938A0B0063447B01930A0B00E8
:103DC40063D48A01930A0C0013850A00EFC0914E54
:103DD400130905006354500D13972A003307E500B7
:103DE4001308000093061000930EFCFF1305FBFF5D
:103DF4009385FBFF93081000635C880183A78C0004
:103E040033860E4113162600B387C70083A84700E4
:103E140013031000635C680183A784003306054123
:103E240013162600B387C70003A34700130E100020
:103E3400635C7801832784003386054113162600CA
:103E4400B387C70003AE4700938708006354130188
:103E5400930703006354FE0093070E00638C07006E
:103E64009387080063D468009307030063D4C701F1
:103E740093070E006384D800639817036304D30088
:103E8400639467026304DE006390C7032320F70092
:103E9400130818001307C7FFE31E58F523202A014F
:103EA400130500006F00800A83A58C0013058100B0
:103EB40003AA4901EFF04FE983A584001305010229
:103EC40083248100EFF04FE88325840013058103E8
:103ED40003240102EFF04FE703278103B735048081
:103EE4009306040013860400938505451385090091
:103EF400E7000A0003258103930701046308F50022
:103F04008325010493851500EFE0913A032501020E
:103F1400930781026308F5008325810293851500C8
:103F2400EFE0113903258100930701016308F500CF
:103F34008325010193851500EFE09137630609009D
:103F440013050900EFC05143130510008320C10776
:103F54000324810783244107032901078329C10618
:103F6400032A8106832A4106032B0106832BC105FC
:103F7400032C8105832C410513010108678000008F
:103F8400832781031307010413040500638AE700F0
:103F9400832501041385070093851500EFE0513153
:103FA40003250102930781026308F500832581023A
:103FB40093851500EFE0D12F0325810093070101BC
:103FC4006308F5008325010193851500EFE0512E68
:103FD4006306090013050900EFC0113A1305040034
:103FE400EFD0033E13040500E31609FE6FF01FFF34
:103FF400130405006FF0DFFA130405006FF0DFFB14
:104004001305F5FF9307000163EEA700B73704809B
:1040140093870755131525003385A700032505004D
:10402400678000001305000067800000130500008E
:10403400678000008326C503638E060203A706007B
:10404400938746001307170013172700B386E6006B
:104054006382F6021306F0FF6F008000638CF600A3
:1040640003A7070093874700E31AC7FE1305100050
:10407400678000001305000067800000B70710F098
:1040840023A0A7F06780000083470500638C070026
:10409400370710F02320F7F08347150013051500A8
:1040A400E39A07FE6780000083470500638C0700DE
:1040B400370710F02320F7F0834715001305150088
:1040C400E39A07FE678000006780000093070500FD
:1040D4000325450003A68700938605008325050074
:1040E400032746010326060103A8450083A5C7004C
:1040F40067000800032545008327050083A7870080
:104104006780070083278500139515003305B500E4
:1041140003A7470183A707011315250013173700C9
:10412400B387E70083A747003385A70067800000B3
:104134009305C0016FE0D117032705019307100011
:1041440063EAE700032545008327050083A7C70129
:1041540067800700130101FF23261100EF60527CE2
:104164000327050193073000631CF70083274501EB
:1041740093952500B385B70003A50500678000006B
:10418400130101FF23261100EF6092790327050133
:1041940093071000631AF7000325450083270500E1
:1041A40083A7C70067800700130101FF23261100BE
:1041B400EF6012770327050193071000631AF700D5
:1041C400032545008327050083A7070167800700AF
:1041D400130101FF23261100EF60927403270501E8
:1041E40093071000631CF7008327850093060600DD
:1041F4000325450003A647016F200010130101FFAA
:1042040023261100EF60D27183A7850013070500F0
:1042140083A6070093874700634606046354D604C5
:10422400131626003386C7008326060063CC0602D5
:1042340003260500B74700809387070D0326460130
:104244006316F60203254500832787008325C700EC
:104254000328050003A7470103A607018327480095
:10426400678007001305000067800000938506003F
:104274006700060083A705001307050083A607004F
:1042840093874700634606046354D6041316260036
:104294003386C7008326060063CC06020326050086
:1042A400B74700809387070D032646016316F6027D
:1042B40003254500832787008325C70003280500BD
:1042C40003A7470103A60701832748006780070067
:1042D4001305000067800000938506006700060050
:1042E40083A745001307050083A6070093874700AB
:1042F400634606046354D604131626003386C700A7
:104304008326060063CC060203260500B747008017
:104314009387070D032646016316F602032545001D
:10432400832787008325C7000328050003A74701C7
:1043340003A60701832748006780070013050000D0
:10434400678000009385060067000600B737048085
:104354009387475F2320F5002322B5002324D5004B
:104364002326C50023280500232A0500232C050045
:104374006780000063CC050063DAC50093952500CF
:10438400B386B60003A50600678000001305F0FF9E
:1043940067800000232AB500678000008327050199
:1043A400130101FF232611001307100093F7D7FF11
:1043B4006384E700EF60D256032685016384050019
:1043C400630006023735048013054559EF40111286
:1043D4008320C10013051000130101016780000050
:1043E4008320C100232CB500130500001301010133
:1043F40067800000130101FC138505009305810209
:10440400232E11002324C1022326D1022328E102F2
:10441400232AF102232C0103232E11032326B100A6
:10442400EF4011098320C1011301010467800000DA
:104434002328B5006780000003250501678000007C
:104444009387F5FF3305F5003355B5023305B502FF
:10445400678000003355B5023305B502678000005C
:104464001305F5FF3305B5003355B5023305B50221
:10447400678000009307200163EEA704B737048028
:1044840093878762131525003305F50083270500FC
:10449400678007009307800023A0F5001305000040
:1044A400678000009307100023A0F50013050000A7
:1044B400678000009307400023A0F5001305000067
:1044C400678000009307200023A0F5001305000077
:1044D4006780000013051000678000009307000147
:1044E40023A0F500130500006780000013070500F2
:1044F40003250500130101FE232A91003305A7407B
:104504000358050023282101232E1100232C8100A8
:1045140093074000138905009304060063FA070714
:10452400835745001304100063880702B307F7009C
:1045340083A60700B387D70003A60700630E06000F
:10454400131626003386C70083A6470093874700C7
:104554003304D402E31AF6FE9307600063F40709F8
:104564008357650013050000639807069305C1008F
:10457400EF409144630805028320C10103248101B3
:104584008324410103290101130101026780000012
:10459400130500009305C10013041000EF40D1413E
:1045A400E31C05FC0325C10093850400EFF09FEC98
:1045B400E31405FC83A704008320C1018324410183
:1045C4003384870223208900032481010329010104
:1045D40013010102678000003307F7000305070099
:1045E4006FF0DFF8130500006FF05FF8638C050AC5
:1045F40083274500930610006384070203A807007D
:1046040063500003938747001307000003A60700C5
:104614001307170093874700B386C602E31807FF02
:1046240083278500130720016366F7063737048064
:104634009397270013074767B387E70083A707000B
:104644006780070093078000B386F6021305000015
:1046540023A0D5006780000093074000B386F602CC
:104664001305000023A0D500678000009307100005
:10467400B386F6021305000023A0D500678000006E
:1046840093072000B386F6021305000023A0D5008B
:104694006780000013051000678000009307000185
:1046A4006FF09FFA130101FF23261100EF605227D8
:1046B40083A78500130101FC23244103232E110247
:1046C400232C8102232A9102232821032326310348
:1046D40023225103130A0500638C070A032786006B
:1046E4006302070C1389060083A6860083A40600D0
:1046F400639A040683A60700832707001384050032
:1047040063C4D700130406008327040003250900AB
:104714006304F50A83274A01373704803736048057
:10472400B735048013050A0013074773930640093D
:104734001306866D9385051EE78007001305100098
:104744008320C10303248103832441030329010338
:104754008329C102032A8102832A4102130101042D
:104764006780000083274501373704801307C7712A
:104774009306100937360480B73504801306866D16
:104784009385051EE7800700130510006FF05FFB9B
:1047940037370480832745011307076C9306F00815
:1047A4006FF05FFD37370480832745011307477097
:1047B400930600096FF01FFC9305010023200100FC
:1047C400EFF05FCB9305040013054100EFB01FE049
:1047D40083294100635E3007832784000325010099
:1047E400130700009387470003A607001307170069
:1047F400938747003305C502E398E9FE832A8A03B9
:10480400232CA9002320A100EFC0C11F930505009C
:1048140013050A00E7800A002324A90083278400E3
:104824001307450083A60700938747002320D5007C
:1048340083A6070093841400938747002320D7009E
:1048440013074700E39699FE130500006FF05FEF2E
:104854000325010083248A03232CA900EFC0811AB5
:104864009305050013050A00E78004002324A9002A
:10487400032784009307050013050000032707009E
:1048840023A0E7006FF0DFEB032545008327050035
:1048940083A78700678007006780000067800000A7
:1048A40003258500130600018327050083A78700DD
:1048B40067800700032545008327050083A7870039
:1048C40067800700032545008327050083A7C700E9
:1048D40067800700032545008327050083A7470158
:1048E40067800700032545008327050083A7070188
:1048F4006780070003258500130640009305000424
:104904008327050083A7870067800700678000006E
:10491400130101FF23261100232481002322910087
:10492400232021016382050803A7050393071000D0
:104934001384050093040500630EF70203A54400E5
:1049440093050400232A040283270500232204007C
:104954002328040223240400032481008320C100AB
:10496400832441000329010083A7C7001301010127
:104974006780070003A9450363080902032545006E
:10498400832549008327050083A7C700E780070024
:1049940003A54400930509008327050083A7C700E6
:1049A400E78007006FF09FF9EF608277930540027C
:1049B4006FE00110930580006FE0810F130101FF88
:1049C4002324810023261100138405006380050439
:1049D400832785016382070203258500930506006A
:1049E40093952500832705001306400083A78700BD
:1049F400E78007002320A4008320C1000324810052
:104A0400130500001301010167800000EF6042718B
:104A140083A80500130101FC232C8102B3881541EE
:104A240003D80800232A91022328210323263103D3
:104A3400232441032322510323206103232E7101E4
:104A4400232E1102130A4000138B05009304050062
:104A5400938B06009309060013040000930AE000F8
:104A64001309F0FF637A0A0783D7480063860706B1
:104A7400B307FB0003A70700B387E70003A70700FA
:104A84006370E40A1315240093874700B387A700D3
:104A940003A70700B387E70003A707003387E740AE
:104AA4000356070063F4CA020357E70063000702D2
:104AB400B387E70083C70700638A070063820B029A
:104AC4003385AB0083270500638C2701130414008E
:104AD4009389C900E36A0AF9832700007300100070
:104AE4009305C10013850900EFF05FB0631C050254
:104AF40003A584008325C100130600018327050054
:104B040083A78700E780070023A0A90063020504A8
:104B140083280B00B3081B4103D808006FF01FFB68
:104B2400130500008320C10303248103832441036C
:104B3400032901038329C102032A8102832A410232
:104B4400032B0102832BC1011301010467800000C0
:104B54008325C1003735048013050575EF4001191D
:104B6400130510006FF01FFC130101FE232E11002A
:104B7400232C8100232A910023282101232631019B
:104B840023244101232251016308060C130A060061
:104B940013040500938A0500930900009304800020
:104BA4001309C0026F00000683D7870063840706D9
:104BB400B387FA0003A50700B387A70003A707007C
:104BC40063F8E9081395290093874700B387A70082
:104BD40003A507003385A700EF40C148B3052503AB
:104BE40003258400130640008327050083A787005C
:104BF400E7800700630405022320AA0093891900B3
:104C0400130A8A0083A70A00B387FA4003D7070070
:104C1400E3ECE4F8832700007300100037350480C8
:104C240013050578EF40810C130510008320C101A2
:104C34000324810183244101032901018329C10043
:104C4400032A8100832A41001301010267800000C6
:104C5400130500006FF09FFDEF60824C83A70500F1
:104C6400130101FE23282101B387F54003D807006F
:104C740013890500232E1100232C8100232A91007F
:104C8400232631012324410123225101930580006D
:104C940063F0051383D78700638C0710B307F9000B
:104CA4001304070003A70700B387E70083A70700DF
:104CB4006370F40E03270500B75700809387878F2E
:104CC4000327470393040500930A0600138A06008A
:104CD4006310F70A03A5840013064000930500043B
:104CE4008327050083A78700E78007009309050051
:104CF40083A60400930700001307040003A8860397
:104D04001386090093060A0093050900138504001D
:104D1400E70008006314050663880A0213143400CC
:104D2400B38A8A0083A74A0093161A00B386460101
:104D340093962600B386D70003A7460083A70600F0
:104D440023A4E90023A2F9008320C10103248101E3
:104D54008324410103290101032A8100832A41009C
:104D6400138509008329C100130101026780000033
:104D7400E7000700930905006FF09FF737450480AB
:104D84001305C58FEF309176930900006FF0DFFBB8
:104D9400B736048037360480374504809386867B93
:104DA4001306467C9305A00A1305058CEF60C238F0
:104DB4008327000073001000130101FA83274500C4
:104DC40023244105138A05008325850123225105E7
:104DD400930A05001305C100232C8104232821050F
:104DE40023263105232E1104232A9104232061054F
:104DF400232E7103232C8103232A91031309060014
:104E040093890600232641012328F1002326010269
:104E1400EF30903013040500630E05028320C105B2
:104E24001305040003248105832441050329010596
:104E34008329C104032A8104832A4104032B010426
:104E4400832BC103032C8103832C4103130101062B
:104E540067800000930541001305C100232201006F
:104E6400EF40901813040500E31A05FA130B4900E8
:104E7400930480006F00800583D787006380070652
:104E8400B307FA0083A50700B387B70003A7070099
:104E9400637AE40403A70A00931524009387470068
:104EA400B387B70083A5070003260B000327070376
:104EB40083264100B385B70013850A00E700070085
:104EC400130B8B00631205121304140083270A00CA
:104ED400B307FA4003D70700E3E0E4FA83270000AE
:104EE4007300100083254100130609001305C10057
:104EF400EF30105913040500E31205F203A5CA01AB
:104F040093054000EFF0CFD3130605001307090003
:104F140093860900930500001305C100EF40800942
:104F240013040500E31C05EE03A54A0093050001E4
:104F34008329810183270500032B410183A70703EC
:104F4400E78007009304050003A54A001306000147
:104F5400938504008327050083A78700E780070063
:104F6400130A05006306050883AC0A01B7670080CD
:104F74009387875603A70C000327C701631EF70610
:104F8400638C091A376C008013090B0093040B001F
:104F9400930BF0FF130C0C566F0000011304140064
:104FA400938484016388890883C74401E38807FEE6
:104FB40003A5040093050001EFF08FCA03A70401C1
:104FC40083A70C006306770583A7C7006382870362
:104FD40083A6C40003A684009305050013850C0072
:104FE400E7800700E30C05FA130405006FF01FE3E4
:104FF400130410006FF09FE213850C001386040065
:1050040093050A00E700070083AC0A016FF05FF71D
:1050140083A6C40003A6840083A787009305050024
:1050240013850C00E7800700E30A05F61304050066
:105034006FF0DFDE03A54A0003AC0A01930400000D
:1050440083270500930BF0FF83A74702E78007003F
:1050540093971900B3873701939737009309050095
:10506400330BFB0083474901638E070283270C003F
:10507400130681002324710183A78701938504000B
:1050840013050C00E780070013040500E31805D896
:10509400832781000327490093841400B387F90010
:1050A4002320F70013098901E31E2BFB1305C1001C
:1050B400EF30102003A54A0093050A00832705005A
:1050C40083A7C700E780070003A54A0083270500DC
:1050D40083A74701E780070013040500E31005D404
:1050E40003A54A0083A5CA018327050083A70702F5
:1050F400E780070013040500E31205D203A50A01A3
:105104008327050083A70701E780070083A50A0218
:1051140063F6A50023A0AA029305050003A54A008F
:10512400130600018327050083A78702E780070091
:10513400130405006FF09FCE03A54A0083270500E2
:1051440083A74702E78007006FF05FF683A7050097
:10515400130101FE23282101B387F54003D807007A
:1051640013890500232E1100232C8100232A91008A
:105174002326310123244101232251019305800078
:1051840063F0051183D78700638C070EB307F9001A
:105194001304070003A70700B387E70083A70700EA
:1051A4006370F40C9309050003254500930500047E
:1051B400930A06008327050013064000138A06009D
:1051C40083A78700E780070003A70900930405006D
:1051D4001306050003288703930710001307040030
:1051E40093060A009305090013850900E7000800E7
:1051F400631E050463880A021314340033848A008E
:105204008327440093161A00B3864601939626001A
:10521400B386D70003A7460083A7060023A4E400AF
:1052240023A2F4008320C101032481010329010185
:105234008329C100032A8100832A410013850400C5
:105244008324410113010102678000003745048073
:1052540013058594EF309129930400006FF09FFCAF
:10526400B736048037360480374504809386867BBE
:105274001306467C9305A00A1305058CEF50D26BE8
:1052840083270000730010000327050093068000A5
:10529400930700003307E5400356070063F6C60092
:1052A400035787006312070603A7050063F6E706A2
:1052B4009385450093972700B387F50003A707005C
:1052C40093064000B387E70003A707003387E7404E
:1052D4000356070063F6C602035747001305000090
:1052E40063000706B387E70003A70700B387E70057
:1052F40003A70700630607041385470067800000BF
:1053040013050000678000003305E50083270500CE
:1053140003A70500E3EEE7F8B736048037460480B8
:1053240037450480130101FF9386867B1306C698D4
:105334009305A00A1305058C23261100EF50D25FB4
:1053440067800000130101FB232611042324810438
:105354002322910423202105232E3103232C4103EE
:10536400232A510323286103232671032324810361
:10537400232291032320A103232EB1012326A1007C
:10538400630C0628138D0500930746002324F100BF
:1053940083270D00376B098093068000B307FD4017
:1053A40003D70700930B0000130AC000130B4BD262
:1053B40063F0E62283D68700638C0620B306DD0003
:1053C40083A70600B386F60083A7060063F2FB22D8
:1053D40093972B0093864600B386F60083A70600B6
:1053E40013074000B38AF60083A70A00B387FA4084
:1053F40003D60700637EC71C83D74700638A071C54
:105404008326C100B387FA0003A7070003A586001B
:1054140013064000B387E70003A9070083270500AC
:105424001314190083A787003304240113142400E0
:1054340093050400E78007002322A100630E0518EA
:10544400930D0500930C0000930440009309600041
:10545400631809046F00001593050C00130504007C
:10546400EFF09FE20327040023A0AD003307E440DC
:105474000356070063F0C41203554700630C05107C
:105484003304A40003250400938C1C00938DCD00E9
:105494003305A400EF30D14B23ACADFE6304991166
:1054A40003A70A003387EA400356070063F2C412D5
:1054B40003544700630E041033848A000327040056
:1054C4003304E4000327040063F8EC1203270D00FF
:1054D40013952C00130444003304A4003307ED4057
:1054E4000325040083550700130C00003304A400B3
:1054F400637CBA000357C700630807003307ED0055
:1055040003260700330CC7000327040023A00D0063
:1055140023A20D003307E4408355070023A40D00A4
:105524001305000063FAB900035767006306070018
:105534003307E4000305070093858D00EF30D1475E
:10554400E30C05F037450480130545BC93850C0036
:10555400EF30C179130510008320C10403248104B2
:1055640083244104032901048329C103032A8103F9
:10557400832A4103032B0103832BC102032C8102E1
:10558400832C4102032D0102832DC1011301010566
:105594006780000023A26D01938C1C00938DCD00C5
:1055A400E31099F1832781000327410093068000CB
:1055B4009387870023ACE7FE2324F10083270D00A3
:1055C400938B1B00B307FD4003D70700E3E4E6DE3B
:1055D400832700007300100037450480130545A895
:1055E40093050400EF308170130510006FF0DFF6AF
:1055F400130500006FF05FF6B73604803746048069
:10560400374504809386867B1306C6AC9305A00AAF
:105614001305058CEF505232EF509230130101FD07
:105624002326110223248102232291022320210311
:10563400232E3101232C4101232A51012328610106
:105644006386073893040500138905001385070052
:105654009309060093050000130600041384060052
:10566400138A0700930A0700EF60125F8326040081
:105674009307600013050000B306D44003D7060067
:1056840063FAE70083D7660063860700B307F40074
:105694000385070093050A00EF301132130B050050
:1056A4006316050A832604001307E000930700002D
:1056B400B306D44003D60600637CC70003D7E600D4
:1056C400630807003307E40083470700B337F0009B
:1056D40093850A00A306FA0213050400EFF0DFBA6B
:1056E40013371500130717002322AA00232AEA0000
:1056F4001306C10093058A0113050400EFE01FDFC0
:10570400130B0500631405040327040093064000EB
:105714003307E4408357070063F0F6060355470058
:10572400630C05043305A400832705003305F50045
:10573400EF301122032704009306C0002324AA009B
:105744003307E4408357070063E2F6048320C10271
:105754000324810283244102032901028329C10114
:10576400032A8101832A410113050B00032B010144
:105774001301010367800000B7660980938646D24F
:105784002324DA009306C000E3F2F6FC8356C70034
:10579400E38E06FA3304D400832704001306800042
:1057A4003304F40083270400B307F44083D60700CE
:1057B400E37ED6F803D78700E30A07F83307E4004B
:1057C400832507003307B700832507006382051884
:1057D4009305A000E3FCD5F683D7A700E38807F67A
:1057E400B307F40083A60700B387D70083A6070096
:1057F4006380061683A74700032747002328FA007F
:10580400832704002326EA00B307F44003D70700E4
:105814006374E61483D7870063800714B307F40026
:1058240003A70700B387E70083AA0700638409146A
:1058340083270900130640009305C00083A787004F
:1058440013050900E78007009309050063060516A0
:105854008327090013850A0083A48700EFB0811A07
:10586400930505001306400013050900E7800400B2
:1058740023A2A900630E05148327040013078000E4
:1058840013050000B307F44083D60700637CD700F8
:1058940083D7870063880700B307F40003A50700D4
:1058A4003385A700EF30110B03A7490023A0A900FB
:1058B4000323040023205701635650133303644029
:1058C400035E03009307A00063F8C7098358A3008D
:1058D400130747009307000033051401638E08067D
:1058E40003260500835583003306C50003280600FC
:1058F400B306B4006382050683A50600B386B6002A
:1059040083A60600638E06056304080E83264600FC
:105914002320D7009387170013074700E390FAFC6E
:105924001307000193070000637AC70103570301BB
:10593400630607003304E4008327040023A4F9006A
:10594400930710002328FA02232A3A036FF01FE07A
:10595400130B00006FF09FDF83270000730010001B
:1059640063F8D708939637003306D600832646009B
:105974006FF01FFA83A70400130640009305C000CC
:1059840083A7870013850400E780070093090500B7
:105994006304050283A7040013850A0003A9870092
:1059A400EFB041069305050013064000138504007B
:1059B400E70009006FF0DFEB37450480130545BEAF
:1059C400EF30C132130B10006FF05FD8EF50427507
:1059D40037450480130545C1EF304131130B1000E6
:1059E4006FF0DFD633036440035E03006FF05FF3B0
:1059F400B736048037460480374504809386867B17
:105A0400130646C49305A00A1305058CEF50C27211
:105A140003A30500938805001308800033836840BE
:105A2400035E03009305050083A545000325850057
:105A34006370C81103588300630C080E338808018F
:105A4400930E06001386070083270800130101FF45
:105A5400232611003308F800832708006376F7082B
:105A640013084800131727003307E800032807002A
:105A74009307400033070701032807003308074151
:105A8400035F080063F2E70B83574800638E07083F
:105A94003307F700832707003307F700832707003E
:105AA40063F4F6061307470093962600B306D7005F
:105AB40003A806009307C00013070000B38606017D
:105AC40063FCC7018357C30063880700B388F800E9
